:100000000C9434000C9449000C9449000C94490061
:100010000C9449000C9449000C9449000C9449003C
:100020000C9449000C9449000C9449000C9449002C
:100030000C9449000C9449000C9449000C9449001C
:100040000C9449000C9449000C9449000C9449000C
:100050000C9449000C9449000C9449000C944900FC
:100060000C9449000C94490011241FBECFEFD8E036
:10007000DEBFCDBF11E0A0E0B1E0E0ECF6E002C0F1
:1000800005900D92A831B107D9F70E9448010C9450
:100090005E030C940000389887E880937A0080E62D
:1000A00080937C00089595B19F70282F207F922B1C
:1000B00095B9289829982A9A00002A9836E03A9506
:1000C000F1F700C025B12F7030E1839FC0011124EA
:1000D000822B85B92A9A00002A98089595B19F70BD
:1000E000282F207F922B95B9289A29982A9A0000C8
:1000F0002A9836E03A95F1F700C025B12F7030E12B
:10010000839FC0011124822B85B92A9A00002A9866
:1001100008958FEF84B92A9883EF91E00197F1F762
:1001200000C0000083E30E94530091E29A95F1F72A
:10013000000082E30E94530081E28A95F1F70000FB
:1001400088E20E94530091E29A95F1F700008EE058
:100150000E94530081E28A95F1F7000081E00E943D
:10016000530083EF91E00197F1F700C0000086E0B3
:100170000E94530091E29A95F1F700000895CF9301
:10018000DF9300D0CDB7DEB790E8998390EC9A83E7
:10019000FE01E60FF11D81509081890F0E945300EE
:1001A00081E28A95F1F700000F900F90DF91CF91D7
:1001B00008950F931F93CF938C01C0E0F801EC0FCB
:1001C000F11D8081882321F00E946E00CF5FF6CF61
:1001D000CF911F910F9108950F931F93CF93DF93AA
:1001E0008C01EB016530710509F040C060E177E2F8
:1001F0000E94AE0180E3860F0E946E00C80168EE87
:1002000073E00E94AE01CB016AE070E00E94AE0193
:10021000805D0E946E00C80164E670E00E94AE013D
:10022000CB016AE070E00E94AE01805D0E946E002A
:100230002AE030E0C801B9010E94AE01CB01B9014A
:100240000E94AE01805D0E946E00C8016AE070E00D
:100250000E94AE01805D0E946E002697A4F085E4A6
:10026000DF91CF911F910F910C946E006430710556
:1002700029F26330710579F262307105C9F261309B
:10028000710559F7E2CFDF91CF911F910F9108953A
:100290000E9489000E944B0061E081E00E94BF0043
:1002A00080E091E00E94D90083EC84BD81E085BDAF
:1002B000569A62E00E94BF008DE091E00E94D90052
:1002C00080917A00806480937A0080917A0084FF24
:1002D000FCCFC0917900C7BD61E08DE00E94BF00F6
:1002E0006C2F70E080E090E00E94630221E73DE324
:1002F0004CE951E40E94F10220E030E040E251E498
:100300000E94C2010E9434026B017C0162E070E035
:10031000C6010E94EC008FED0E946E0083E40E94F3
:100320006E0062E08AE00E94BF0062E070E0C601F9
:100330000E94EC0085E20E946E002FE38DE093E0C6
:10034000215080409040E1F700C000008CE00E9406
:10035000530021E22A95F1F70000B2CFAA1BBB1B84
:1003600051E107C0AA1FBB1FA617B70710F0A61BB5
:10037000B70B881F991F5A95A9F780959095BC01D6
:10038000CD0108950E94D6010C94B7020E94B002DC
:1003900058F00E94A90240F029F45F3F29F00C9424
:1003A000A00251110C94EB020C94A6020E94C80208
:1003B00068F39923B1F3552391F3951B550BBB2794
:1003C000AA2762177307840738F09F5F5F4F220FD9
:1003D000331F441FAA1FA9F335D00E2E3AF0E0E8D0
:1003E00032D091505040E695001CCAF72BD0FE2F1A
:1003F00029D0660F771F881FBB1F261737074807AE
:10040000AB07B0E809F0BB0B802DBF01FF27935865
:100410005F4F3AF09E3F510578F00C94A0020C9487
:10042000EB025F3FE4F3983ED4F3869577956795AA
:10043000B795F7959F5FC9F7880F911D969587959A
:1004400097F90895E1E0660F771F881FBB1F6217B9
:1004500073078407BA0720F0621B730B840BBA0B77
:10046000EE1F88F7E09508950E94D00288F09F570C
:1004700098F0B92F9927B751B0F0E1F0660F771FC8
:10048000881F991F1AF0BA95C9F714C0B13091F0BE
:100490000E94EA02B1E008950C94EA02672F782FD7
:1004A0008827B85F39F0B93FCCF386957795679583
:1004B000B395D9F73EF490958095709561957F4FEF
:1004C0008F4F9F4F0895E89409C097FB3EF4909595
:1004D0008095709561957F4F8F4F9F4F9923A9F01D
:1004E000F92F96E9BB279395F695879577956795AC
:1004F000B795F111F8CFFAF4BB0F11F460FF1BC0F0
:100500006F5F7F4F8F4F9F4F16C0882311F096E982
:1005100011C0772321F09EE8872F762F05C0662330
:1005200071F096E8862F70E060E02AF09A95660FE9
:10053000771F881FDAF7880F9695879597F90895A2
:1005400097F99F6780E870E060E008959FEF80EC86
:10055000089500240A941616170618060906089529
:1005600000240A9412161306140605060895092E8F
:100570000394000C11F4882352F0BB0F40F4BF2BFE
:1005800011F460FF04C06F5F7F4F8F4F9F4F08953E
:1005900057FD9058440F551F59F05F3F71F0479534
:1005A000880F97FB991F61F09F3F79F08795089519
:1005B000121613061406551FF2CF4695F1DF08C038
:1005C000161617061806991FF1CF86957105610555
:1005D00008940895E894BB2766277727CB0197F9FD
:1005E00008950E9404030C94B7020E94A90238F0F7
:1005F0000E94B00220F0952311F00C94A0020C94FC
:10060000A60211240C94EB020E94C80270F3959F7D
:10061000C1F3950F50E0551F629FF001729FBB27F9
:10062000F00DB11D639FAA27F00DB11DAA1F649F95
:100630006627B00DA11D661F829F2227B00DA11D48
:10064000621F739FB00DA11D621F839FA00D611DCE
:10065000221F749F3327A00D611D231F849F600DEF
:10066000211D822F762F6A2F11249F5750409AF018
:10067000F1F088234AF0EE0FFF1FBB1F661F771FA4
:10068000881F91505040A9F79E3F510580F00C946F
:10069000A0020C94EB025F3FE4F3983ED4F38695FE
:1006A00077956795B795F795E7959F5FC1F7FE2B0F
:1006B000880F911D9695879597F90895F894FFCF27
:1006C00054656D70657261747572653A0046616E4D
:0806D00073706565643A0000D7
:00000001FF
